{
	"data": {
		"bytecode": {
			"linkReferences": {},
			"object": "6080604052348015600e575f80fd5b506111f28061001c5f395ff3fe608060405234801561000f575f80fd5b506004361061004a575f3560e01c8063523fba7f1461004e57806361f036eb1461007e578063c2c1325f146100ae578063e03b8d45146100ca575b5f80fd5b610068600480360381019061006391906107a9565b6100ff565b60405161007591906107ec565b60405180910390f35b6100986004803603810190610093919061096b565b610114565b6040516100a591906107ec565b60405180910390f35b6100c860048036038101906100c391906109d7565b61034a565b005b6100e460048036038101906100df9190610a15565b610647565b6040516100f696959493929190610ac9565b60405180910390f35b6001602052805f5260405f205f915090505481565b5f80845111610158576040517f08c379a000000000000000000000000000000000000000000000000000000000815260040161014f90610b79565b60405180910390fd5b5f831161019a576040517f08c379a000000000000000000000000000000000000000000000000000000000815260040161019190610c07565b60405180910390fd5b5f82116101dc576040517f08c379a00000000000000000000000000000000000000000000000000000000081526004016101d390610c95565b60405180910390fd5b5f6040518060c001604052803373ffffffffffffffffffffffffffffffffffffffff1681526020018681526020018581526020015f81526020018481526020015f151581525090505f808054905090505f82908060018154018082558091505060019003905f5260205f2090600602015f909190919091505f820151815f015f6101000a81548173ffffffffffffffffffffffffffffffffffffffff021916908373ffffffffffffffffffffffffffffffffffffffff16021790555060208201518160010190816102ad9190610ead565b5060408201518160020155606082015181600301556080820151816004015560a0820151816005015f6101000a81548160ff02191690831515021790555050503373ffffffffffffffffffffffffffffffffffffffff16817ffd43d0275d4eca5919abed0968d926f051b32d154186098c880850d57428c2e08888604051610336929190610f7c565b60405180910390a380925050509392505050565b5f805490508210610390576040517f08c379a000000000000000000000000000000000000000000000000000000000815260040161038790610ff4565b60405180910390fd5b5f82815481106103a3576103a2611012565b5b905f5260205f2090600602016005015f9054906101000a900460ff16156103ff576040517f08c379a00000000000000000000000000000000000000000000000000000000081526004016103f690611089565b60405180910390fd5b5f828154811061041257610411611012565b5b905f5260205f2090600602015f015f9054906101000a900473ffffffffffffffffffffffffffffffffffffffff1673ffffffffffffffffffffffffffffffffffffffff163373ffffffffffffffffffffffffffffffffffffffff16146104ad576040517f08c379a00000000000000000000000000000000000000000000000000000000081526004016104a490611117565b60405180910390fd5b805f83815481106104c1576104c0611012565b5b905f5260205f2090600602016003015f8282546104de9190611162565b925050819055505f8083815481106104f9576104f8611012565b5b905f5260205f209060060201600201545f848154811061051c5761051b611012565b5b905f5260205f209060060201600301541015905080156105e65760015f848154811061054b5761054a611012565b5b905f5260205f2090600602016005015f6101000a81548160ff0219169083151502179055505f838154811061058357610582611012565b5b905f5260205f2090600602016004015460015f3373ffffffffffffffffffffffffffffffffffffffff1673ffffffffffffffffffffffffffffffffffffffff1681526020019081526020015f205f8282546105de9190611162565b925050819055505b827f617a64309cb11de68b1555820d52895e2cc505b3f77c25868d7ed98d09af27ab5f858154811061061b5761061a611012565b5b905f5260205f209060060201600301548360405161063a929190611195565b60405180910390a2505050565b5f8181548110610655575f80fd5b905f5260205f2090600602015f91509050805f015f9054906101000a900473ffffffffffffffffffffffffffffffffffffffff169080600101805461069990610ce0565b80601f01602080910402602001604051908101604052809291908181526020018280546106c590610ce0565b80156107105780601f106106e757610100808354040283529160200191610710565b820191905f5260205f20905b8154815290600101906020018083116106f357829003601f168201915b505050505090806002015490806003015490806004015490806005015f9054906101000a900460ff16905086565b5f604051905090565b5f80fd5b5f80fd5b5f73ffffffffffffffffffffffffffffffffffffffff82169050919050565b5f6107788261074f565b9050919050565b6107888161076e565b8114610792575f80fd5b50565b5f813590506107a38161077f565b92915050565b5f602082840312156107be576107bd610747565b5b5f6107cb84828501610795565b91505092915050565b5f819050919050565b6107e6816107d4565b82525050565b5f6020820190506107ff5f8301846107dd565b92915050565b5f80fd5b5f80fd5b5f601f19601f8301169050919050565b7f4e487b71000000000000000000000000000000000000000000000000000000005f52604160045260245ffd5b6108538261080d565b810181811067ffffffffffffffff821117156108725761087161081d565b5b80604052505050565b5f61088461073e565b9050610890828261084a565b919050565b5f67ffffffffffffffff8211156108af576108ae61081d565b5b6108b88261080d565b9050602081019050919050565b828183375f83830152505050565b5f6108e56108e084610895565b61087b565b90508281526020810184848401111561090157610900610809565b5b61090c8482856108c5565b509392505050565b5f82601f83011261092857610927610805565b5b81356109388482602086016108d3565b91505092915050565b61094a816107d4565b8114610954575f80fd5b50565b5f8135905061096581610941565b92915050565b5f805f6060848603121561098257610981610747565b5b5f84013567ffffffffffffffff81111561099f5761099e61074b565b5b6109ab86828701610914565b93505060206109bc86828701610957565b92505060406109cd86828701610957565b9150509250925092565b5f80604083850312156109ed576109ec610747565b5b5f6109fa85828601610957565b9250506020610a0b85828601610957565b9150509250929050565b5f60208284031215610a2a57610a29610747565b5b5f610a3784828501610957565b91505092915050565b610a498161076e565b82525050565b5f81519050919050565b5f82825260208201905092915050565b8281835e5f83830152505050565b5f610a8182610a4f565b610a8b8185610a59565b9350610a9b818560208601610a69565b610aa48161080d565b840191505092915050565b5f8115159050919050565b610ac381610aaf565b82525050565b5f60c082019050610adc5f830189610a40565b8181036020830152610aee8188610a77565b9050610afd60408301876107dd565b610b0a60608301866107dd565b610b1760808301856107dd565b610b2460a0830184610aba565b979650505050505050565b7f476f616c206465736372697074696f6e2063616e6e6f7420626520656d7074795f82015250565b5f610b63602083610a59565b9150610b6e82610b2f565b602082019050919050565b5f6020820190508181035f830152610b9081610b57565b9050919050565b7f5461726765742076616c7565206d7573742062652067726561746572207468615f8201527f6e207a65726f0000000000000000000000000000000000000000000000000000602082015250565b5f610bf1602683610a59565b9150610bfc82610b97565b604082019050919050565b5f6020820190508181035f830152610c1e81610be5565b9050919050565b7f546f6b656e20726577617264206d7573742062652067726561746572207468615f8201527f6e207a65726f0000000000000000000000000000000000000000000000000000602082015250565b5f610c7f602683610a59565b9150610c8a82610c25565b604082019050919050565b5f6020820190508181035f830152610cac81610c73565b9050919050565b7f4e487b71000000000000000000000000000000000000000000000000000000005f52602260045260245ffd5b5f6002820490506001821680610cf757607f821691505b602082108103610d0a57610d09610cb3565b5b50919050565b5f819050815f5260205f209050919050565b5f6020601f8301049050919050565b5f82821b905092915050565b5f60088302610d6c7fffffffffffffffffffffffffffffffffffffffffffffffffffffffffffffffff82610d31565b610d768683610d31565b95508019841693508086168417925050509392505050565b5f819050919050565b5f610db1610dac610da7846107d4565b610d8e565b6107d4565b9050919050565b5f819050919050565b610dca83610d97565b610dde610dd682610db8565b848454610d3d565b825550505050565b5f90565b610df2610de6565b610dfd818484610dc1565b505050565b5b81811015610e2057610e155f82610dea565b600181019050610e03565b5050565b601f821115610e6557610e3681610d10565b610e3f84610d22565b81016020851015610e4e578190505b610e62610e5a85610d22565b830182610e02565b50505b505050565b5f82821c905092915050565b5f610e855f1984600802610e6a565b1980831691505092915050565b5f610e9d8383610e76565b9150826002028217905092915050565b610eb682610a4f565b67ffffffffffffffff811115610ecf57610ece61081d565b5b610ed98254610ce0565b610ee4828285610e24565b5f60209050601f831160018114610f15575f8415610f03578287015190505b610f0d8582610e92565b865550610f74565b601f198416610f2386610d10565b5f5b82811015610f4a57848901518255600182019150602085019450602081019050610f25565b86831015610f675784890151610f63601f891682610e76565b8355505b6001600288020188555050505b505050505050565b5f6040820190508181035f830152610f948185610a77565b9050610fa360208301846107dd565b9392505050565b7f496e76616c696420676f616c20494400000000000000000000000000000000005f82015250565b5f610fde600f83610a59565b9150610fe982610faa565b602082019050919050565b5f6020820190508181035f83015261100b81610fd2565b9050919050565b7f4e487b71000000000000000000000000000000000000000000000000000000005f52603260045260245ffd5b7f476f616c20697320616c726561647920636f6d706c65746564000000000000005f82015250565b5f611073601983610a59565b915061107e8261103f565b602082019050919050565b5f6020820190508181035f8301526110a081611067565b9050919050565b7f4f6e6c7920676f616c207061727469636970616e742063616e207570646174655f8201527f2070726f67726573730000000000000000000000000000000000000000000000602082015250565b5f611101602983610a59565b915061110c826110a7565b604082019050919050565b5f6020820190508181035f83015261112e816110f5565b9050919050565b7f4e487b71000000000000000000000000000000000000000000000000000000005f52601160045260245ffd5b5f61116c826107d4565b9150611177836107d4565b925082820190508082111561118f5761118e611135565b5b92915050565b5f6040820190506111a85f8301856107dd565b6111b56020830184610aba565b939250505056fea264697066735822122075d7dab609eb83eba20794504ac57742e40f1db475fccd7d3099ca4bbd34ae6564736f6c634300081a0033",
			"opcodes": "PUSH1 0x80 PUSH1 0x40 MSTORE CALLVALUE DUP1 ISZERO PUSH1 0xE JUMPI PUSH0 DUP1 REVERT JUMPDEST POP PUSH2 0x11F2 DUP1 PUSH2 0x1C PUSH0 CODECOPY PUSH0 RETURN INVALID PUSH1 0x80 PUSH1 0x40 MSTORE CALLVALUE DUP1 ISZERO PUSH2 0xF JUMPI PUSH0 DUP1 REVERT JUMPDEST POP PUSH1 0x4 CALLDATASIZE LT PUSH2 0x4A JUMPI PUSH0 CALLDATALOAD PUSH1 0xE0 SHR DUP1 PUSH4 0x523FBA7F EQ PUSH2 0x4E JUMPI DUP1 PUSH4 0x61F036EB EQ PUSH2 0x7E JUMPI DUP1 PUSH4 0xC2C1325F EQ PUSH2 0xAE JUMPI DUP1 PUSH4 0xE03B8D45 EQ PUSH2 0xCA JUMPI JUMPDEST PUSH0 DUP1 REVERT JUMPDEST PUSH2 0x68 PUSH1 0x4 DUP1 CALLDATASIZE SUB DUP2 ADD SWAP1 PUSH2 0x63 SWAP2 SWAP1 PUSH2 0x7A9 JUMP JUMPDEST PUSH2 0xFF JUMP JUMPDEST PUSH1 0x40 MLOAD PUSH2 0x75 SWAP2 SWAP1 PUSH2 0x7EC JUMP JUMPDEST PUSH1 0x40 MLOAD DUP1 SWAP2 SUB SWAP1 RETURN JUMPDEST PUSH2 0x98 PUSH1 0x4 DUP1 CALLDATASIZE SUB DUP2 ADD SWAP1 PUSH2 0x93 SWAP2 SWAP1 PUSH2 0x96B JUMP JUMPDEST PUSH2 0x114 JUMP JUMPDEST PUSH1 0x40 MLOAD PUSH2 0xA5 SWAP2 SWAP1 PUSH2 0x7EC JUMP JUMPDEST PUSH1 0x40 MLOAD DUP1 SWAP2 SUB SWAP1 RETURN JUMPDEST PUSH2 0xC8 PUSH1 0x4 DUP1 CALLDATASIZE SUB DUP2 ADD SWAP1 PUSH2 0xC3 SWAP2 SWAP1 PUSH2 0x9D7 JUMP JUMPDEST PUSH2 0x34A JUMP JUMPDEST STOP JUMPDEST PUSH2 0xE4 PUSH1 0x4 DUP1 CALLDATASIZE SUB DUP2 ADD SWAP1 PUSH2 0xDF SWAP2 SWAP1 PUSH2 0xA15 JUMP JUMPDEST PUSH2 0x647 JUMP JUMPDEST PUSH1 0x40 MLOAD PUSH2 0xF6 SWAP7 SWAP6 SWAP5 SWAP4 SWAP3 SWAP2 SWAP1 PUSH2 0xAC9 JUMP JUMPDEST PUSH1 0x40 MLOAD DUP1 SWAP2 SUB SWAP1 RETURN JUMPDEST PUSH1 0x1 PUSH1 0x20 MSTORE DUP1 PUSH0 MSTORE PUSH1 0x40 PUSH0 KECCAK256 PUSH0 SWAP2 POP SWAP1 POP SLOAD DUP2 JUMP JUMPDEST PUSH0 DUP1 DUP5 MLOAD GT PUSH2 0x158 JUMPI PUSH1 0x40 MLOAD PUSH32 0x8C379A000000000000000000000000000000000000000000000000000000000 DUP2 MSTORE PUSH1 0x4 ADD PUSH2 0x14F SWAP1 PUSH2 0xB79 JUMP JUMPDEST PUSH1 0x40 MLOAD DUP1 SWAP2 SUB SWAP1 REVERT JUMPDEST PUSH0 DUP4 GT PUSH2 0x19A JUMPI PUSH1 0x40 MLOAD PUSH32 0x8C379A000000000000000000000000000000000000000000000000000000000 DUP2 MSTORE PUSH1 0x4 ADD PUSH2 0x191 SWAP1 PUSH2 0xC07 JUMP JUMPDEST PUSH1 0x40 MLOAD DUP1 SWAP2 SUB SWAP1 REVERT JUMPDEST PUSH0 DUP3 GT PUSH2 0x1DC JUMPI PUSH1 0x40 MLOAD PUSH32 0x8C379A000000000000000000000000000000000000000000000000000000000 DUP2 MSTORE PUSH1 0x4 ADD PUSH2 0x1D3 SWAP1 PUSH2 0xC95 JUMP JUMPDEST PUSH1 0x40 MLOAD DUP1 SWAP2 SUB SWAP1 REVERT JUMPDEST PUSH0 PUSH1 0x40 MLOAD DUP1 PUSH1 0xC0 ADD PUSH1 0x40 MSTORE DUP1 CALLER PUSH20 0xFFFFFFFFFFFFFFFFFFFFFFFFFFFFFFFFFFFFFFFF AND DUP2 MSTORE PUSH1 0x20 ADD DUP7 DUP2 MSTORE PUSH1 0x20 ADD DUP6 DUP2 MSTORE PUSH1 0x20 ADD PUSH0 DUP2 MSTORE PUSH1 0x20 ADD DUP5 DUP2 MSTORE PUSH1 0x20 ADD PUSH0 ISZERO ISZERO DUP2 MSTORE POP SWAP1 POP PUSH0 DUP1 DUP1 SLOAD SWAP1 POP SWAP1 POP PUSH0 DUP3 SWAP1 DUP1 PUSH1 0x1 DUP2 SLOAD ADD DUP1 DUP3 SSTORE DUP1 SWAP2 POP POP PUSH1 0x1 SWAP1 SUB SWAP1 PUSH0 MSTORE PUSH1 0x20 PUSH0 KECCAK256 SWAP1 PUSH1 0x6 MUL ADD PUSH0 SWAP1 SWAP2 SWAP1 SWAP2 SWAP1 SWAP2 POP PUSH0 DUP3 ADD MLOAD DUP2 PUSH0 ADD PUSH0 PUSH2 0x100 EXP DUP2 SLOAD DUP2 PUSH20 0xFFFFFFFFFFFFFFFFFFFFFFFFFFFFFFFFFFFFFFFF MUL NOT AND SWAP1 DUP4 PUSH20 0xFFFFFFFFFFFFFFFFFFFFFFFFFFFFFFFFFFFFFFFF AND MUL OR SWAP1 SSTORE POP PUSH1 0x20 DUP3 ADD MLOAD DUP2 PUSH1 0x1 ADD SWAP1 DUP2 PUSH2 0x2AD SWAP2 SWAP1 PUSH2 0xEAD JUMP JUMPDEST POP PUSH1 0x40 DUP3 ADD MLOAD DUP2 PUSH1 0x2 ADD SSTORE PUSH1 0x60 DUP3 ADD MLOAD DUP2 PUSH1 0x3 ADD SSTORE PUSH1 0x80 DUP3 ADD MLOAD DUP2 PUSH1 0x4 ADD SSTORE PUSH1 0xA0 DUP3 ADD MLOAD DUP2 PUSH1 0x5 ADD PUSH0 PUSH2 0x100 EXP DUP2 SLOAD DUP2 PUSH1 0xFF MUL NOT AND SWAP1 DUP4 ISZERO ISZERO MUL OR SWAP1 SSTORE POP POP POP CALLER PUSH20 0xFFFFFFFFFFFFFFFFFFFFFFFFFFFFFFFFFFFFFFFF AND DUP2 PUSH32 0xFD43D0275D4ECA5919ABED0968D926F051B32D154186098C880850D57428C2E0 DUP9 DUP9 PUSH1 0x40 MLOAD PUSH2 0x336 SWAP3 SWAP2 SWAP1 PUSH2 0xF7C JUMP JUMPDEST PUSH1 0x40 MLOAD DUP1 SWAP2 SUB SWAP1 LOG3 DUP1 SWAP3 POP POP POP SWAP4 SWAP3 POP POP POP JUMP JUMPDEST PUSH0 DUP1 SLOAD SWAP1 POP DUP3 LT PUSH2 0x390 JUMPI PUSH1 0x40 MLOAD PUSH32 0x8C379A000000000000000000000000000000000000000000000000000000000 DUP2 MSTORE PUSH1 0x4 ADD PUSH2 0x387 SWAP1 PUSH2 0xFF4 JUMP JUMPDEST PUSH1 0x40 MLOAD DUP1 SWAP2 SUB SWAP1 REVERT JUMPDEST PUSH0 DUP3 DUP2 SLOAD DUP2 LT PUSH2 0x3A3 JUMPI PUSH2 0x3A2 PUSH2 0x1012 JUMP JUMPDEST JUMPDEST SWAP1 PUSH0 MSTORE PUSH1 0x20 PUSH0 KECCAK256 SWAP1 PUSH1 0x6 MUL ADD PUSH1 0x5 ADD PUSH0 SWAP1 SLOAD SWAP1 PUSH2 0x100 EXP SWAP1 DIV PUSH1 0xFF AND ISZERO PUSH2 0x3FF JUMPI PUSH1 0x40 MLOAD PUSH32 0x8C379A000000000000000000000000000000000000000000000000000000000 DUP2 MSTORE PUSH1 0x4 ADD PUSH2 0x3F6 SWAP1 PUSH2 0x1089 JUMP JUMPDEST PUSH1 0x40 MLOAD DUP1 SWAP2 SUB SWAP1 REVERT JUMPDEST PUSH0 DUP3 DUP2 SLOAD DUP2 LT PUSH2 0x412 JUMPI PUSH2 0x411 PUSH2 0x1012 JUMP JUMPDEST JUMPDEST SWAP1 PUSH0 MSTORE PUSH1 0x20 PUSH0 KECCAK256 SWAP1 PUSH1 0x6 MUL ADD PUSH0 ADD PUSH0 SWAP1 SLOAD SWAP1 PUSH2 0x100 EXP SWAP1 DIV PUSH20 0xFFFFFFFFFFFFFFFFFFFFFFFFFFFFFFFFFFFFFFFF AND PUSH20 0xFFFFFFFFFFFFFFFFFFFFFFFFFFFFFFFFFFFFFFFF AND CALLER PUSH20 0xFFFFFFFFFFFFFFFFFFFFFFFFFFFFFFFFFFFFFFFF AND EQ PUSH2 0x4AD JUMPI PUSH1 0x40 MLOAD PUSH32 0x8C379A000000000000000000000000000000000000000000000000000000000 DUP2 MSTORE PUSH1 0x4 ADD PUSH2 0x4A4 SWAP1 PUSH2 0x1117 JUMP JUMPDEST PUSH1 0x40 MLOAD DUP1 SWAP2 SUB SWAP1 REVERT JUMPDEST DUP1 PUSH0 DUP4 DUP2 SLOAD DUP2 LT PUSH2 0x4C1 JUMPI PUSH2 0x4C0 PUSH2 0x1012 JUMP JUMPDEST JUMPDEST SWAP1 PUSH0 MSTORE PUSH1 0x20 PUSH0 KECCAK256 SWAP1 PUSH1 0x6 MUL ADD PUSH1 0x3 ADD PUSH0 DUP3 DUP3 SLOAD PUSH2 0x4DE SWAP2 SWAP1 PUSH2 0x1162 JUMP JUMPDEST SWAP3 POP POP DUP2 SWAP1 SSTORE POP PUSH0 DUP1 DUP4 DUP2 SLOAD DUP2 LT PUSH2 0x4F9 JUMPI PUSH2 0x4F8 PUSH2 0x1012 JUMP JUMPDEST JUMPDEST SWAP1 PUSH0 MSTORE PUSH1 0x20 PUSH0 KECCAK256 SWAP1 PUSH1 0x6 MUL ADD PUSH1 0x2 ADD SLOAD PUSH0 DUP5 DUP2 SLOAD DUP2 LT PUSH2 0x51C JUMPI PUSH2 0x51B PUSH2 0x1012 JUMP JUMPDEST JUMPDEST SWAP1 PUSH0 MSTORE PUSH1 0x20 PUSH0 KECCAK256 SWAP1 PUSH1 0x6 MUL ADD PUSH1 0x3 ADD SLOAD LT ISZERO SWAP1 POP DUP1 ISZERO PUSH2 0x5E6 JUMPI PUSH1 0x1 PUSH0 DUP5 DUP2 SLOAD DUP2 LT PUSH2 0x54B JUMPI PUSH2 0x54A PUSH2 0x1012 JUMP JUMPDEST JUMPDEST SWAP1 PUSH0 MSTORE PUSH1 0x20 PUSH0 KECCAK256 SWAP1 PUSH1 0x6 MUL ADD PUSH1 0x5 ADD PUSH0 PUSH2 0x100 EXP DUP2 SLOAD DUP2 PUSH1 0xFF MUL NOT AND SWAP1 DUP4 ISZERO ISZERO MUL OR SWAP1 SSTORE POP PUSH0 DUP4 DUP2 SLOAD DUP2 LT PUSH2 0x583 JUMPI PUSH2 0x582 PUSH2 0x1012 JUMP JUMPDEST JUMPDEST SWAP1 PUSH0 MSTORE PUSH1 0x20 PUSH0 KECCAK256 SWAP1 PUSH1 0x6 MUL ADD PUSH1 0x4 ADD SLOAD PUSH1 0x1 PUSH0 CALLER PUSH20 0xFFFFFFFFFFFFFFFFFFFFFFFFFFFFFFFFFFFFFFFF AND PUSH20 0xFFFFFFFFFFFFFFFFFFFFFFFFFFFFFFFFFFFFFFFF AND DUP2 MSTORE PUSH1 0x20 ADD SWAP1 DUP2 MSTORE PUSH1 0x20 ADD PUSH0 KECCAK256 PUSH0 DUP3 DUP3 SLOAD PUSH2 0x5DE SWAP2 SWAP1 PUSH2 0x1162 JUMP JUMPDEST SWAP3 POP POP DUP2 SWAP1 SSTORE POP JUMPDEST DUP3 PUSH32 0x617A64309CB11DE68B1555820D52895E2CC505B3F77C25868D7ED98D09AF27AB PUSH0 DUP6 DUP2 SLOAD DUP2 LT PUSH2 0x61B JUMPI PUSH2 0x61A PUSH2 0x1012 JUMP JUMPDEST JUMPDEST SWAP1 PUSH0 MSTORE PUSH1 0x20 PUSH0 KECCAK256 SWAP1 PUSH1 0x6 MUL ADD PUSH1 0x3 ADD SLOAD DUP4 PUSH1 0x40 MLOAD PUSH2 0x63A SWAP3 SWAP2 SWAP1 PUSH2 0x1195 JUMP JUMPDEST PUSH1 0x40 MLOAD DUP1 SWAP2 SUB SWAP1 LOG2 POP POP POP JUMP JUMPDEST PUSH0 DUP2 DUP2 SLOAD DUP2 LT PUSH2 0x655 JUMPI PUSH0 DUP1 REVERT JUMPDEST SWAP1 PUSH0 MSTORE PUSH1 0x20 PUSH0 KECCAK256 SWAP1 PUSH1 0x6 MUL ADD PUSH0 SWAP2 POP SWAP1 POP DUP1 PUSH0 ADD PUSH0 SWAP1 SLOAD SWAP1 PUSH2 0x100 EXP SWAP1 DIV PUSH20 0xFFFFFFFFFFFFFFFFFFFFFFFFFFFFFFFFFFFFFFFF AND SWAP1 DUP1 PUSH1 0x1 ADD DUP1 SLOAD PUSH2 0x699 SWAP1 PUSH2 0xCE0 JUMP JUMPDEST DUP1 PUSH1 0x1F ADD PUSH1 0x20 DUP1 SWAP2 DIV MUL PUSH1 0x20 ADD PUSH1 0x40 MLOAD SWAP1 DUP2 ADD PUSH1 0x40 MSTORE DUP1 SWAP3 SWAP2 SWAP1 DUP2 DUP2 MSTORE PUSH1 0x20 ADD DUP3 DUP1 SLOAD PUSH2 0x6C5 SWAP1 PUSH2 0xCE0 JUMP JUMPDEST DUP1 ISZERO PUSH2 0x710 JUMPI DUP1 PUSH1 0x1F LT PUSH2 0x6E7 JUMPI PUSH2 0x100 DUP1 DUP4 SLOAD DIV MUL DUP4 MSTORE SWAP2 PUSH1 0x20 ADD SWAP2 PUSH2 0x710 JUMP JUMPDEST DUP3 ADD SWAP2 SWAP1 PUSH0 MSTORE PUSH1 0x20 PUSH0 KECCAK256 SWAP1 JUMPDEST DUP2 SLOAD DUP2 MSTORE SWAP1 PUSH1 0x1 ADD SWAP1 PUSH1 0x20 ADD DUP1 DUP4 GT PUSH2 0x6F3 JUMPI DUP3 SWAP1 SUB PUSH1 0x1F AND DUP3 ADD SWAP2 JUMPDEST POP POP POP POP POP SWAP1 DUP1 PUSH1 0x2 ADD SLOAD SWAP1 DUP1 PUSH1 0x3 ADD SLOAD SWAP1 DUP1 PUSH1 0x4 ADD SLOAD SWAP1 DUP1 PUSH1 0x5 ADD PUSH0 SWAP1 SLOAD SWAP1 PUSH2 0x100 EXP SWAP1 DIV PUSH1 0xFF AND SWAP1 POP DUP7 JUMP JUMPDEST PUSH0 PUSH1 0x40 MLOAD SWAP1 POP SWAP1 JUMP JUMPDEST PUSH0 DUP1 REVERT JUMPDEST PUSH0 DUP1 REVERT JUMPDEST PUSH0 PUSH20 0xFFFFFFFFFFFFFFFFFFFFFFFFFFFFFFFFFFFFFFFF DUP3 AND SWAP1 POP SWAP2 SWAP1 POP JUMP JUMPDEST PUSH0 PUSH2 0x778 DUP3 PUSH2 0x74F JUMP JUMPDEST SWAP1 POP SWAP2 SWAP1 POP JUMP JUMPDEST PUSH2 0x788 DUP2 PUSH2 0x76E JUMP JUMPDEST DUP2 EQ PUSH2 0x792 JUMPI PUSH0 DUP1 REVERT JUMPDEST POP JUMP JUMPDEST PUSH0 DUP2 CALLDATALOAD SWAP1 POP PUSH2 0x7A3 DUP2 PUSH2 0x77F JUMP JUMPDEST SWAP3 SWAP2 POP POP JUMP JUMPDEST PUSH0 PUSH1 0x20 DUP3 DUP5 SUB SLT ISZERO PUSH2 0x7BE JUMPI PUSH2 0x7BD PUSH2 0x747 JUMP JUMPDEST JUMPDEST PUSH0 PUSH2 0x7CB DUP5 DUP3 DUP6 ADD PUSH2 0x795 JUMP JUMPDEST SWAP2 POP POP SWAP3 SWAP2 POP POP JUMP JUMPDEST PUSH0 DUP2 SWAP1 POP SWAP2 SWAP1 POP JUMP JUMPDEST PUSH2 0x7E6 DUP2 PUSH2 0x7D4 JUMP JUMPDEST DUP3 MSTORE POP POP JUMP JUMPDEST PUSH0 PUSH1 0x20 DUP3 ADD SWAP1 POP PUSH2 0x7FF PUSH0 DUP4 ADD DUP5 PUSH2 0x7DD JUMP JUMPDEST SWAP3 SWAP2 POP POP JUMP JUMPDEST PUSH0 DUP1 REVERT JUMPDEST PUSH0 DUP1 REVERT JUMPDEST PUSH0 PUSH1 0x1F NOT PUSH1 0x1F DUP4 ADD AND SWAP1 POP SWAP2 SWAP1 POP JUMP JUMPDEST PUSH32 0x4E487B7100000000000000000000000000000000000000000000000000000000 PUSH0 MSTORE PUSH1 0x41 PUSH1 0x4 MSTORE PUSH1 0x24 PUSH0 REVERT JUMPDEST PUSH2 0x853 DUP3 PUSH2 0x80D JUMP JUMPDEST DUP2 ADD DUP2 DUP2 LT PUSH8 0xFFFFFFFFFFFFFFFF DUP3 GT OR ISZERO PUSH2 0x872 JUMPI PUSH2 0x871 PUSH2 0x81D JUMP JUMPDEST JUMPDEST DUP1 PUSH1 0x40 MSTORE POP POP POP JUMP JUMPDEST PUSH0 PUSH2 0x884 PUSH2 0x73E JUMP JUMPDEST SWAP1 POP PUSH2 0x890 DUP3 DUP3 PUSH2 0x84A JUMP JUMPDEST SWAP2 SWAP1 POP JUMP JUMPDEST PUSH0 PUSH8 0xFFFFFFFFFFFFFFFF DUP3 GT ISZERO PUSH2 0x8AF JUMPI PUSH2 0x8AE PUSH2 0x81D JUMP JUMPDEST JUMPDEST PUSH2 0x8B8 DUP3 PUSH2 0x80D JUMP JUMPDEST SWAP1 POP PUSH1 0x20 DUP2 ADD SWAP1 POP SWAP2 SWAP1 POP JUMP JUMPDEST DUP3 DUP2 DUP4 CALLDATACOPY PUSH0 DUP4 DUP4 ADD MSTORE POP POP POP JUMP JUMPDEST PUSH0 PUSH2 0x8E5 PUSH2 0x8E0 DUP5 PUSH2 0x895 JUMP JUMPDEST PUSH2 0x87B JUMP JUMPDEST SWAP1 POP DUP3 DUP2 MSTORE PUSH1 0x20 DUP2 ADD DUP5 DUP5 DUP5 ADD GT ISZERO PUSH2 0x901 JUMPI PUSH2 0x900 PUSH2 0x809 JUMP JUMPDEST JUMPDEST PUSH2 0x90C DUP5 DUP3 DUP6 PUSH2 0x8C5 JUMP JUMPDEST POP SWAP4 SWAP3 POP POP POP JUMP JUMPDEST PUSH0 DUP3 PUSH1 0x1F DUP4 ADD SLT PUSH2 0x928 JUMPI PUSH2 0x927 PUSH2 0x805 JUMP JUMPDEST JUMPDEST DUP2 CALLDATALOAD PUSH2 0x938 DUP5 DUP3 PUSH1 0x20 DUP7 ADD PUSH2 0x8D3 JUMP JUMPDEST SWAP2 POP POP SWAP3 SWAP2 POP POP JUMP JUMPDEST PUSH2 0x94A DUP2 PUSH2 0x7D4 JUMP JUMPDEST DUP2 EQ PUSH2 0x954 JUMPI PUSH0 DUP1 REVERT JUMPDEST POP JUMP JUMPDEST PUSH0 DUP2 CALLDATALOAD SWAP1 POP PUSH2 0x965 DUP2 PUSH2 0x941 JUMP JUMPDEST SWAP3 SWAP2 POP POP JUMP JUMPDEST PUSH0 DUP1 PUSH0 PUSH1 0x60 DUP5 DUP7 SUB SLT ISZERO PUSH2 0x982 JUMPI PUSH2 0x981 PUSH2 0x747 JUMP JUMPDEST JUMPDEST PUSH0 DUP5 ADD CALLDATALOAD PUSH8 0xFFFFFFFFFFFFFFFF DUP2 GT ISZERO PUSH2 0x99F JUMPI PUSH2 0x99E PUSH2 0x74B JUMP JUMPDEST JUMPDEST PUSH2 0x9AB DUP7 DUP3 DUP8 ADD PUSH2 0x914 JUMP JUMPDEST SWAP4 POP POP PUSH1 0x20 PUSH2 0x9BC DUP7 DUP3 DUP8 ADD PUSH2 0x957 JUMP JUMPDEST SWAP3 POP POP PUSH1 0x40 PUSH2 0x9CD DUP7 DUP3 DUP8 ADD PUSH2 0x957 JUMP JUMPDEST SWAP2 POP POP SWAP3 POP SWAP3 POP SWAP3 JUMP JUMPDEST PUSH0 DUP1 PUSH1 0x40 DUP4 DUP6 SUB SLT ISZERO PUSH2 0x9ED JUMPI PUSH2 0x9EC PUSH2 0x747 JUMP JUMPDEST JUMPDEST PUSH0 PUSH2 0x9FA DUP6 DUP3 DUP7 ADD PUSH2 0x957 JUMP JUMPDEST SWAP3 POP POP PUSH1 0x20 PUSH2 0xA0B DUP6 DUP3 DUP7 ADD PUSH2 0x957 JUMP JUMPDEST SWAP2 POP POP SWAP3 POP SWAP3 SWAP1 POP JUMP JUMPDEST PUSH0 PUSH1 0x20 DUP3 DUP5 SUB SLT ISZERO PUSH2 0xA2A JUMPI PUSH2 0xA29 PUSH2 0x747 JUMP JUMPDEST JUMPDEST PUSH0 PUSH2 0xA37 DUP5 DUP3 DUP6 ADD PUSH2 0x957 JUMP JUMPDEST SWAP2 POP POP SWAP3 SWAP2 POP POP JUMP JUMPDEST PUSH2 0xA49 DUP2 PUSH2 0x76E JUMP JUMPDEST DUP3 MSTORE POP POP JUMP JUMPDEST PUSH0 DUP2 MLOAD SWAP1 POP SWAP2 SWAP1 POP JUMP JUMPDEST PUSH0 DUP3 DUP3 MSTORE PUSH1 0x20 DUP3 ADD SWAP1 POP SWAP3 SWAP2 POP POP JUMP JUMPDEST DUP3 DUP2 DUP4 MCOPY PUSH0 DUP4 DUP4 ADD MSTORE POP POP POP JUMP JUMPDEST PUSH0 PUSH2 0xA81 DUP3 PUSH2 0xA4F JUMP JUMPDEST PUSH2 0xA8B DUP2 DUP6 PUSH2 0xA59 JUMP JUMPDEST SWAP4 POP PUSH2 0xA9B DUP2 DUP6 PUSH1 0x20 DUP7 ADD PUSH2 0xA69 JUMP JUMPDEST PUSH2 0xAA4 DUP2 PUSH2 0x80D JUMP JUMPDEST DUP5 ADD SWAP2 POP POP SWAP3 SWAP2 POP POP JUMP JUMPDEST PUSH0 DUP2 ISZERO ISZERO SWAP1 POP SWAP2 SWAP1 POP JUMP JUMPDEST PUSH2 0xAC3 DUP2 PUSH2 0xAAF JUMP JUMPDEST DUP3 MSTORE POP POP JUMP JUMPDEST PUSH0 PUSH1 0xC0 DUP3 ADD SWAP1 POP PUSH2 0xADC PUSH0 DUP4 ADD DUP10 PUSH2 0xA40 JUMP JUMPDEST DUP2 DUP2 SUB PUSH1 0x20 DUP4 ADD MSTORE PUSH2 0xAEE DUP2 DUP9 PUSH2 0xA77 JUMP JUMPDEST SWAP1 POP PUSH2 0xAFD PUSH1 0x40 DUP4 ADD DUP8 PUSH2 0x7DD JUMP JUMPDEST PUSH2 0xB0A PUSH1 0x60 DUP4 ADD DUP7 PUSH2 0x7DD JUMP JUMPDEST PUSH2 0xB17 PUSH1 0x80 DUP4 ADD DUP6 PUSH2 0x7DD JUMP JUMPDEST PUSH2 0xB24 PUSH1 0xA0 DUP4 ADD DUP5 PUSH2 0xABA JUMP JUMPDEST SWAP8 SWAP7 POP POP POP POP POP POP POP JUMP JUMPDEST PUSH32 0x476F616C206465736372697074696F6E2063616E6E6F7420626520656D707479 PUSH0 DUP3 ADD MSTORE POP JUMP JUMPDEST PUSH0 PUSH2 0xB63 PUSH1 0x20 DUP4 PUSH2 0xA59 JUMP JUMPDEST SWAP2 POP PUSH2 0xB6E DUP3 PUSH2 0xB2F JUMP JUMPDEST PUSH1 0x20 DUP3 ADD SWAP1 POP SWAP2 SWAP1 POP JUMP JUMPDEST PUSH0 PUSH1 0x20 DUP3 ADD SWAP1 POP DUP2 DUP2 SUB PUSH0 DUP4 ADD MSTORE PUSH2 0xB90 DUP2 PUSH2 0xB57 JUMP JUMPDEST SWAP1 POP SWAP2 SWAP1 POP JUMP JUMPDEST PUSH32 0x5461726765742076616C7565206D757374206265206772656174657220746861 PUSH0 DUP3 ADD MSTORE PUSH32 0x6E207A65726F0000000000000000000000000000000000000000000000000000 PUSH1 0x20 DUP3 ADD MSTORE POP JUMP JUMPDEST PUSH0 PUSH2 0xBF1 PUSH1 0x26 DUP4 PUSH2 0xA59 JUMP JUMPDEST SWAP2 POP PUSH2 0xBFC DUP3 PUSH2 0xB97 JUMP JUMPDEST PUSH1 0x40 DUP3 ADD SWAP1 POP SWAP2 SWAP1 POP JUMP JUMPDEST PUSH0 PUSH1 0x20 DUP3 ADD SWAP1 POP DUP2 DUP2 SUB PUSH0 DUP4 ADD MSTORE PUSH2 0xC1E DUP2 PUSH2 0xBE5 JUMP JUMPDEST SWAP1 POP SWAP2 SWAP1 POP JUMP JUMPDEST PUSH32 0x546F6B656E20726577617264206D757374206265206772656174657220746861 PUSH0 DUP3 ADD MSTORE PUSH32 0x6E207A65726F0000000000000000000000000000000000000000000000000000 PUSH1 0x20 DUP3 ADD MSTORE POP JUMP JUMPDEST PUSH0 PUSH2 0xC7F PUSH1 0x26 DUP4 PUSH2 0xA59 JUMP JUMPDEST SWAP2 POP PUSH2 0xC8A DUP3 PUSH2 0xC25 JUMP JUMPDEST PUSH1 0x40 DUP3 ADD SWAP1 POP SWAP2 SWAP1 POP JUMP JUMPDEST PUSH0 PUSH1 0x20 DUP3 ADD SWAP1 POP DUP2 DUP2 SUB PUSH0 DUP4 ADD MSTORE PUSH2 0xCAC DUP2 PUSH2 0xC73 JUMP JUMPDEST SWAP1 POP SWAP2 SWAP1 POP JUMP JUMPDEST PUSH32 0x4E487B7100000000000000000000000000000000000000000000000000000000 PUSH0 MSTORE PUSH1 0x22 PUSH1 0x4 MSTORE PUSH1 0x24 PUSH0 REVERT JUMPDEST PUSH0 PUSH1 0x2 DUP3 DIV SWAP1 POP PUSH1 0x1 DUP3 AND DUP1 PUSH2 0xCF7 JUMPI PUSH1 0x7F DUP3 AND SWAP2 POP JUMPDEST PUSH1 0x20 DUP3 LT DUP2 SUB PUSH2 0xD0A JUMPI PUSH2 0xD09 PUSH2 0xCB3 JUMP JUMPDEST JUMPDEST POP SWAP2 SWAP1 POP JUMP JUMPDEST PUSH0 DUP2 SWAP1 POP DUP2 PUSH0 MSTORE PUSH1 0x20 PUSH0 KECCAK256 SWAP1 POP SWAP2 SWAP1 POP JUMP JUMPDEST PUSH0 PUSH1 0x20 PUSH1 0x1F DUP4 ADD DIV SWAP1 POP SWAP2 SWAP1 POP JUMP JUMPDEST PUSH0 DUP3 DUP3 SHL SWAP1 POP SWAP3 SWAP2 POP POP JUMP JUMPDEST PUSH0 PUSH1 0x8 DUP4 MUL PUSH2 0xD6C PUSH32 0xFFFFFFFFFFFFFFFFFFFFFFFFFFFFFFFFFFFFFFFFFFFFFFFFFFFFFFFFFFFFFFFF DUP3 PUSH2 0xD31 JUMP JUMPDEST PUSH2 0xD76 DUP7 DUP4 PUSH2 0xD31 JUMP JUMPDEST SWAP6 POP DUP1 NOT DUP5 AND SWAP4 POP DUP1 DUP7 AND DUP5 OR SWAP3 POP POP POP SWAP4 SWAP3 POP POP POP JUMP JUMPDEST PUSH0 DUP2 SWAP1 POP SWAP2 SWAP1 POP JUMP JUMPDEST PUSH0 PUSH2 0xDB1 PUSH2 0xDAC PUSH2 0xDA7 DUP5 PUSH2 0x7D4 JUMP JUMPDEST PUSH2 0xD8E JUMP JUMPDEST PUSH2 0x7D4 JUMP JUMPDEST SWAP1 POP SWAP2 SWAP1 POP JUMP JUMPDEST PUSH0 DUP2 SWAP1 POP SWAP2 SWAP1 POP JUMP JUMPDEST PUSH2 0xDCA DUP4 PUSH2 0xD97 JUMP JUMPDEST PUSH2 0xDDE PUSH2 0xDD6 DUP3 PUSH2 0xDB8 JUMP JUMPDEST DUP5 DUP5 SLOAD PUSH2 0xD3D JUMP JUMPDEST DUP3 SSTORE POP POP POP POP JUMP JUMPDEST PUSH0 SWAP1 JUMP JUMPDEST PUSH2 0xDF2 PUSH2 0xDE6 JUMP JUMPDEST PUSH2 0xDFD DUP2 DUP5 DUP5 PUSH2 0xDC1 JUMP JUMPDEST POP POP POP JUMP JUMPDEST JUMPDEST DUP2 DUP2 LT ISZERO PUSH2 0xE20 JUMPI PUSH2 0xE15 PUSH0 DUP3 PUSH2 0xDEA JUMP JUMPDEST PUSH1 0x1 DUP2 ADD SWAP1 POP PUSH2 0xE03 JUMP JUMPDEST POP POP JUMP JUMPDEST PUSH1 0x1F DUP3 GT ISZERO PUSH2 0xE65 JUMPI PUSH2 0xE36 DUP2 PUSH2 0xD10 JUMP JUMPDEST PUSH2 0xE3F DUP5 PUSH2 0xD22 JUMP JUMPDEST DUP2 ADD PUSH1 0x20 DUP6 LT ISZERO PUSH2 0xE4E JUMPI DUP2 SWAP1 POP JUMPDEST PUSH2 0xE62 PUSH2 0xE5A DUP6 PUSH2 0xD22 JUMP JUMPDEST DUP4 ADD DUP3 PUSH2 0xE02 JUMP JUMPDEST POP POP JUMPDEST POP POP POP JUMP JUMPDEST PUSH0 DUP3 DUP3 SHR SWAP1 POP SWAP3 SWAP2 POP POP JUMP JUMPDEST PUSH0 PUSH2 0xE85 PUSH0 NOT DUP5 PUSH1 0x8 MUL PUSH2 0xE6A JUMP JUMPDEST NOT DUP1 DUP4 AND SWAP2 POP POP SWAP3 SWAP2 POP POP JUMP JUMPDEST PUSH0 PUSH2 0xE9D DUP4 DUP4 PUSH2 0xE76 JUMP JUMPDEST SWAP2 POP DUP3 PUSH1 0x2 MUL DUP3 OR SWAP1 POP SWAP3 SWAP2 POP POP JUMP JUMPDEST PUSH2 0xEB6 DUP3 PUSH2 0xA4F JUMP JUMPDEST PUSH8 0xFFFFFFFFFFFFFFFF DUP2 GT ISZERO PUSH2 0xECF JUMPI PUSH2 0xECE PUSH2 0x81D JUMP JUMPDEST JUMPDEST PUSH2 0xED9 DUP3 SLOAD PUSH2 0xCE0 JUMP JUMPDEST PUSH2 0xEE4 DUP3 DUP3 DUP6 PUSH2 0xE24 JUMP JUMPDEST PUSH0 PUSH1 0x20 SWAP1 POP PUSH1 0x1F DUP4 GT PUSH1 0x1 DUP2 EQ PUSH2 0xF15 JUMPI PUSH0 DUP5 ISZERO PUSH2 0xF03 JUMPI DUP3 DUP8 ADD MLOAD SWAP1 POP JUMPDEST PUSH2 0xF0D DUP6 DUP3 PUSH2 0xE92 JUMP JUMPDEST DUP7 SSTORE POP PUSH2 0xF74 JUMP JUMPDEST PUSH1 0x1F NOT DUP5 AND PUSH2 0xF23 DUP7 PUSH2 0xD10 JUMP JUMPDEST PUSH0 JUMPDEST DUP3 DUP2 LT ISZERO PUSH2 0xF4A JUMPI DUP5 DUP10 ADD MLOAD DUP3 SSTORE PUSH1 0x1 DUP3 ADD SWAP2 POP PUSH1 0x20 DUP6 ADD SWAP5 POP PUSH1 0x20 DUP2 ADD SWAP1 POP PUSH2 0xF25 JUMP JUMPDEST DUP7 DUP4 LT ISZERO PUSH2 0xF67 JUMPI DUP5 DUP10 ADD MLOAD PUSH2 0xF63 PUSH1 0x1F DUP10 AND DUP3 PUSH2 0xE76 JUMP JUMPDEST DUP4 SSTORE POP JUMPDEST PUSH1 0x1 PUSH1 0x2 DUP9 MUL ADD DUP9 SSTORE POP POP POP JUMPDEST POP POP POP POP POP POP JUMP JUMPDEST PUSH0 PUSH1 0x40 DUP3 ADD SWAP1 POP DUP2 DUP2 SUB PUSH0 DUP4 ADD MSTORE PUSH2 0xF94 DUP2 DUP6 PUSH2 0xA77 JUMP JUMPDEST SWAP1 POP PUSH2 0xFA3 PUSH1 0x20 DUP4 ADD DUP5 PUSH2 0x7DD JUMP JUMPDEST SWAP4 SWAP3 POP POP POP JUMP JUMPDEST PUSH32 0x496E76616C696420676F616C2049440000000000000000000000000000000000 PUSH0 DUP3 ADD MSTORE POP JUMP JUMPDEST PUSH0 PUSH2 0xFDE PUSH1 0xF DUP4 PUSH2 0xA59 JUMP JUMPDEST SWAP2 POP PUSH2 0xFE9 DUP3 PUSH2 0xFAA JUMP JUMPDEST PUSH1 0x20 DUP3 ADD SWAP1 POP SWAP2 SWAP1 POP JUMP JUMPDEST PUSH0 PUSH1 0x20 DUP3 ADD SWAP1 POP DUP2 DUP2 SUB PUSH0 DUP4 ADD MSTORE PUSH2 0x100B DUP2 PUSH2 0xFD2 JUMP JUMPDEST SWAP1 POP SWAP2 SWAP1 POP JUMP JUMPDEST PUSH32 0x4E487B7100000000000000000000000000000000000000000000000000000000 PUSH0 MSTORE PUSH1 0x32 PUSH1 0x4 MSTORE PUSH1 0x24 PUSH0 REVERT JUMPDEST PUSH32 0x476F616C20697320616C726561647920636F6D706C6574656400000000000000 PUSH0 DUP3 ADD MSTORE POP JUMP JUMPDEST PUSH0 PUSH2 0x1073 PUSH1 0x19 DUP4 PUSH2 0xA59 JUMP JUMPDEST SWAP2 POP PUSH2 0x107E DUP3 PUSH2 0x103F JUMP JUMPDEST PUSH1 0x20 DUP3 ADD SWAP1 POP SWAP2 SWAP1 POP JUMP JUMPDEST PUSH0 PUSH1 0x20 DUP3 ADD SWAP1 POP DUP2 DUP2 SUB PUSH0 DUP4 ADD MSTORE PUSH2 0x10A0 DUP2 PUSH2 0x1067 JUMP JUMPDEST SWAP1 POP SWAP2 SWAP1 POP JUMP JUMPDEST PUSH32 0x4F6E6C7920676F616C207061727469636970616E742063616E20757064617465 PUSH0 DUP3 ADD MSTORE PUSH32 0x2070726F67726573730000000000000000000000000000000000000000000000 PUSH1 0x20 DUP3 ADD MSTORE POP JUMP JUMPDEST PUSH0 PUSH2 0x1101 PUSH1 0x29 DUP4 PUSH2 0xA59 JUMP JUMPDEST SWAP2 POP PUSH2 0x110C DUP3 PUSH2 0x10A7 JUMP JUMPDEST PUSH1 0x40 DUP3 ADD SWAP1 POP SWAP2 SWAP1 POP JUMP JUMPDEST PUSH0 PUSH1 0x20 DUP3 ADD SWAP1 POP DUP2 DUP2 SUB PUSH0 DUP4 ADD MSTORE PUSH2 0x112E DUP2 PUSH2 0x10F5 JUMP JUMPDEST SWAP1 POP SWAP2 SWAP1 POP JUMP JUMPDEST PUSH32 0x4E487B7100000000000000000000000000000000000000000000000000000000 PUSH0 MSTORE PUSH1 0x11 PUSH1 0x4 MSTORE PUSH1 0x24 PUSH0 REVERT JUMPDEST PUSH0 PUSH2 0x116C DUP3 PUSH2 0x7D4 JUMP JUMPDEST SWAP2 POP PUSH2 0x1177 DUP4 PUSH2 0x7D4 JUMP JUMPDEST SWAP3 POP DUP3 DUP3 ADD SWAP1 POP DUP1 DUP3 GT ISZERO PUSH2 0x118F JUMPI PUSH2 0x118E PUSH2 0x1135 JUMP JUMPDEST JUMPDEST SWAP3 SWAP2 POP POP JUMP JUMPDEST PUSH0 PUSH1 0x40 DUP3 ADD SWAP1 POP PUSH2 0x11A8 PUSH0 DUP4 ADD DUP6 PUSH2 0x7DD JUMP JUMPDEST PUSH2 0x11B5 PUSH1 0x20 DUP4 ADD DUP5 PUSH2 0xABA JUMP JUMPDEST SWAP4 SWAP3 POP POP POP JUMP INVALID LOG2 PUSH5 0x6970667358 0x22 SLT KECCAK256 PUSH22 0xD7DAB609EB83EBA20794504AC57742E40F1DB475FCCD PUSH30 0x3099CA4BBD34AE6564736F6C634300081A00330000000000000000000000 "
		},
		"gasEstimates": {
			"creation": {
				"codeDepositCost": "918800",
				"executionCost": "953",
				"totalCost": "919753"
			},
			"external": {
				"createFitnessGoal(string,uint256,uint256)": "infinite",
				"fitnessGoals(uint256)": "infinite",
				"tokenBalances(address)": "2780",
				"updateGoalProgress(uint256,uint256)": "infinite"
			}
		},
		"methodIdentifiers": {
			"createFitnessGoal(string,uint256,uint256)": "61f036eb",
			"fitnessGoals(uint256)": "e03b8d45",
			"tokenBalances(address)": "523fba7f",
			"updateGoalProgress(uint256,uint256)": "c2c1325f"
		}
	},
	"abi": [
		{
			"anonymous": false,
			"inputs": [
				{
					"indexed": true,
					"internalType": "uint256",
					"name": "goalId",
					"type": "uint256"
				},
				{
					"indexed": true,
					"internalType": "address",
					"name": "participant",
					"type": "address"
				},
				{
					"indexed": false,
					"internalType": "string",
					"name": "goalDescription",
					"type": "string"
				},
				{
					"indexed": false,
					"internalType": "uint256",
					"name": "targetValue",
					"type": "uint256"
				}
			],
			"name": "GoalCreated",
			"type": "event"
		},
		{
			"anonymous": false,
			"inputs": [
				{
					"indexed": true,
					"internalType": "uint256",
					"name": "goalId",
					"type": "uint256"
				},
				{
					"indexed": false,
					"internalType": "uint256",
					"name": "newProgress",
					"type": "uint256"
				},
				{
					"indexed": false,
					"internalType": "bool",
					"name": "isCompleted",
					"type": "bool"
				}
			],
			"name": "GoalProgressUpdated",
			"type": "event"
		},
		{
			"inputs": [
				{
					"internalType": "string",
					"name": "_goalDescription",
					"type": "string"
				},
				{
					"internalType": "uint256",
					"name": "_targetValue",
					"type": "uint256"
				},
				{
					"internalType": "uint256",
					"name": "_tokenReward",
					"type": "uint256"
				}
			],
			"name": "createFitnessGoal",
			"outputs": [
				{
					"internalType": "uint256",
					"name": "",
					"type": "uint256"
				}
			],
			"stateMutability": "nonpayable",
			"type": "function"
		},
		{
			"inputs": [
				{
					"internalType": "uint256",
					"name": "",
					"type": "uint256"
				}
			],
			"name": "fitnessGoals",
			"outputs": [
				{
					"internalType": "address",
					"name": "participant",
					"type": "address"
				},
				{
					"internalType": "string",
					"name": "goalDescription",
					"type": "string"
				},
				{
					"internalType": "uint256",
					"name": "targetValue",
					"type": "uint256"
				},
				{
					"internalType": "uint256",
					"name": "currentProgress",
					"type": "uint256"
				},
				{
					"internalType": "uint256",
					"name": "tokenReward",
					"type": "uint256"
				},
				{
					"internalType": "bool",
					"name": "isCompleted",
					"type": "bool"
				}
			],
			"stateMutability": "view",
			"type": "function"
		},
		{
			"inputs": [
				{
					"internalType": "address",
					"name": "",
					"type": "address"
				}
			],
			"name": "tokenBalances",
			"outputs": [
				{
					"internalType": "uint256",
					"name": "",
					"type": "uint256"
				}
			],
			"stateMutability": "view",
			"type": "function"
		},
		{
			"inputs": [
				{
					"internalType": "uint256",
					"name": "_goalId",
					"type": "uint256"
				},
				{
					"internalType": "uint256",
					"name": "_progressValue",
					"type": "uint256"
				}
			],
			"name": "updateGoalProgress",
			"outputs": [],
			"stateMutability": "nonpayable",
			"type": "function"
		}
	]
}